:100000000C942A000C945D060C9492060C94C6067F
:100010000C9447000C9447000C9447000C94F9068C
:100020000C9447000C9447000C9447000C94470034
:100030000C9447000C9447000C9447000C94470024
:100040000C9447000C9447000C9447000C94470014
:100050000C94470011241FBECFE5D8E0DEBFCDBF12
:1000600010E0A0E6B0E0EEE9FAE102C005900D92E2
:10007000AA36B107D9F710E0AAE6B0E001C01D9298
:10008000A038B107E1F70E94A50B0C944D0D0C941C
:100090000000EF92FF920F931F937B018C0120E0F1
:1000A00030E040E05FE40E94490388238CF0C801FF
:1000B000B70120E030E040E05FE40E94C1010E940F
:1000C000A9039B01AC01205030404040504806C07D
:1000D000C801B7010E94A9039B01AC01B901CA0183
:1000E0001F910F91FF90EF900895A0E0B0E0EBE733
:1000F000F0E00C94160DDC012B01FA019C9192307A
:1001000008F439C1EB018881823008F433C194309E
:1001100069F4843009F02FC111969C91119789815F
:10012000981709F428C1A0E6B0E025C1843009F48D
:1001300021C18230A9F4923009F01DC19A01AD01AC
:1001400088E0EA010990AE01E90109929E0181501F
:10015000C1F7E201898111969C918923818308C1AD
:10016000923009F407C112962D903C901397EB0141
:100170008A819B811496AD90BD90CD90DC901797AD
:10018000EC80FD800E811F819101281B390BB90184
:1001900037FF04C066277727621B730B6032710537
:1001A0000CF061C0121613066CF537014801062EDB
:1001B00004C096948794779467940A94D2F721E0C8
:1001C00030E040E050E004C0220F331F441F551FB1
:1001D0006A95D2F721503040404050402E213F21B7
:1001E00040235123211531054105510521F021E01E
:1001F00030E040E050E079018A01E628F72808293C
:1002000019293CC0232BD1F1260E371E350146019A
:10021000062E04C096948794779467940A94D2F734
:1002200021E030E040E050E004C0220F331F441FC3
:10023000551F6A95D2F721503040404050402A2146
:100240003B214C215D21211531054105510521F04E
:1002500021E030E040E050E059016A01A628B728CB
:10026000C828D9280BC0821593052CF01C01AA249C
:10027000BB24650103C0EE24FF24870111969C91E5
:10028000D20111968C91981709F445C0992339F041
:10029000A80197012A193B094C095D0906C0A6016E
:1002A00095012E193F09400B510B57FD08C01182D3
:1002B0003382228224833583468357831DC081E0A5
:1002C00081833382228288279927DC01821B930B4A
:1002D000A40BB50B84839583A683B7830DC0220F2F
:1002E000331F441F551F24833583468357838281E0
:1002F000938101979383828324813581468157813D
:10030000DA01C9010197A109B1098F5F9F4FAF4F72
:10031000BF4328F30BC0918333822282EA0CFB1C7B
:100320000C1D1D1DE482F5820683178383E0808304
:10033000248135814681578157FF1AC0C901AA27F8
:1003400097FDA095BA2F81709070A070B0705695EF
:10035000479537952795822B932BA42BB52B848318
:100360009583A683B7838281938101969383828349
:10037000DF0101C0D201CD01CDB7DEB7E2E10C94BF
:10038000320DA0E2B0E0E7ECF1E00C94220D6983BD
:100390007A838B839C832D833E834F835887E9E048
:1003A000EE2EF12CEC0EFD1ECE010196B7010E943F
:1003B000D2048E010F5E1F4FCE010596B8010E9438
:1003C000D2048A8991E089278A8BC701B801AE01DE
:1003D000475E5F4F0E9475000E94FD03A096E6E015
:1003E0000C943E0DA0E2B0E0E8EFF1E00C94220D99
:1003F00069837A838B839C832D833E834F835887C5
:10040000F9E0EF2EF12CEC0EFD1ECE010196B701A6
:100410000E94D2048E010F5E1F4FCE010596B801D7
:100420000E94D204C701B801AE01475E5F4F0E942F
:1004300075000E94FD03A096E6E00C943E0DA0E23C
:10044000B0E0E5E2F2E00C94160D69837A838B83C9
:100450009C832D833E834F835887CE010196BE0136
:10046000675F7F4F0E94D204CE010596BE016F5E8A
:100470007F4F0E94D2049985923088F0898982301A
:10048000C8F0943019F4823051F404C0843029F457
:10049000923081F480E690E0C6C0923049F420E0CA
:1004A0009A858A89981321E02A87CE010996BBC0D4
:1004B000823049F420E09A858A89981321E02A8BBA
:1004C000CE014196B0C02D843E844F8458886D88FB
:1004D0007E888F88988CEE24FF248701AA24BB2471
:1004E000650140E050E060E070E0E0E0F0E0C10174
:1004F00081709070892BE9F0E60CF71C081D191D1E
:100500009A01AB012A0D3B1D4C1D5D1D80E090E062
:10051000A0E0B0E0E614F7040805190520F481E036
:1005200090E0A0E0B0E0BA01A901480F591F6A1F8E
:100530007B1FAA0CBB1CCC1CDD1C97FE08C081E0F5
:1005400090E0A0E0B0E0A82AB92ACA2ADB2A3196B6
:10055000E032F10549F0660C771C881C991C569412
:10056000479437942794C3CFFA85EA892B893C892D
:100570008B859C85280F391F2E5F3F4F17C0CA01FE
:1005800081709070892B61F016950795F794E79428
:1005900080E090E0A0E0B0E8E82AF92A0A2B1B2BC3
:1005A00076956795579547952F5F3F4F77FDE7CF36
:1005B0000CC0440F551F661F771F17FD4160EE0CDE
:1005C000FF1C001F111F21503040403090E05907A0
:1005D00090E0690790E4790760F32B8F3C8FDB0193
:1005E000CA018F779070A070B07080349105A1051A
:1005F000B10561F447FD0AC0E114F10401051105DC
:1006000029F0405C5F4F6F4F7F4F40781A8EFE1786
:1006100011F081E08A8F4D8F5E8F6F8F78A383E01A
:10062000898FCE0149960E94FD03A096E2E10C94C9
:10063000320DA8E1B0E0EFE1F3E00C94220D698304
:100640007A838B839C832D833E834F83588789E0F5
:10065000E82EF12CEC0EFD1ECE010196B7010E9492
:10066000D2048E010F5E1F4FCE010596B8010E9485
:10067000D2048985823040F08989823028F0C70110
:10068000B8010E944A0501C08FEF6896E6E00C941D
:100690003E0DA8E1B0E0EFE4F3E00C94220D698395
:1006A0007A838B839C832D833E834F83588789E095
:1006B000E82EF12CEC0EFD1ECE010196B7010E9432
:1006C000D2048E010F5E1F4FCE010596B8010E9425
:1006D000D2048985823040F08989823028F0C701B0
:1006E000B8010E944A0501C08FEF6896E6E00C94BD
:1006F0003E0DA8E1B0E0EFE7F3E00C94220D698332
:100700007A838B839C832D833E834F83588789E034
:10071000E82EF12CEC0EFD1ECE010196B7010E94D1
:10072000D2048E010F5E1F4FCE010596B8010E94C4
:10073000D2048985823040F08989823028F0C7014F
:10074000B8010E944A0501C081E06896E6E00C9479
:100750003E0DACE0B0E0EFEAF3E00C94260D6983C7
:100760007A838B839C83CE010196BE016B5F7F4FA2
:100770000E94D2048D81823061F1823050F1843048
:1007800021F48E81882351F12EC02F81388537FDC9
:1007900020C06E812F3131051CF06623F9F023C093
:1007A0008EE190E0821B930B29853A854B855C8511
:1007B00004C056954795379527958A95D2F76623B5
:1007C000B1F050954095309521953F4F4F4F5F4F79
:1007D0000EC020E030E040E050E009C02FEF3FEFD6
:1007E0004FEF5FE704C020E030E040E050E8B9019F
:1007F000CA012C96E2E00C94420DDF92EF92FF9238
:100800000F931F93FC01E480F58006811781D1804E
:100810008081823048F480E090E0A0E1B0E0E82AF6
:10082000F92A0A2B1B2BA5C0843009F49FC0823003
:1008300021F4EE24FF24870105C0E114F104010531
:10084000110519F4E0E0F0E096C0628173819FEF3A
:10085000623879070CF05BC022E83FEF261B370BAC
:100860002A3131052CF020E030E040E050E02AC091
:10087000B801A701022E04C0769567955795479554
:100880000A94D2F781E090E0A0E0B0E004C0880FC5
:10089000991FAA1FBB1F2A95D2F70197A109B10979
:1008A0008E219F21A023B1230097A105B10521F03E
:1008B00081E090E0A0E0B0E09A01AB01282B392B59
:1008C0004A2B5B2BDA01C9018F779070A070B07052
:1008D00080349105A105B10539F427FF09C0205CDA
:1008E0003F4F4F4F5F4F04C0215C3F4F4F4F5F4F13
:1008F000E0E0F0E02030A0E03A07A0E04A07A0E402
:100900005A0710F0E1E0F0E079018A0127C0603871
:10091000710564F5FB01E158FF4FD801C7018F77DE
:100920009070A070B07080349105A105B10539F4C4
:10093000E7FE0DC080E490E0A0E0B0E004C08FE3EB
:1009400090E0A0E0B0E0E80EF91E0A1F1B1F17FFA1
:1009500005C016950795F794E794319687E01695AC
:100960000795F794E7948A95D1F705C0EE24FF2404
:100970008701EFEFF0E06E2F679566276795902F60
:100980009F77D794DD24D7948E2F8695492F462BB9
:10099000582F5D29B701CA011F910F91FF90EF9069
:1009A000DF900895FC01DB01408151812281622F9B
:1009B0006F7770E0221F2227221F9381892F880FD3
:1009C000822B282F30E0991F9927991F11969C930D
:1009D000119721153105A9F54115510561057105DD
:1009E00011F482E037C082E89FEF13969C938E93B8
:1009F00012979A01AB0167E0220F331F441F551F66
:100A00006A95D1F783E08C930DC0220F331F441FEA
:100A1000551F12968D919C911397019713969C9355
:100A20008E931297203080E0380780E0480780E4FA
:100A3000580758F314962D933D934D935C93179755
:100A400008952F3F310579F4411551056105710570
:100A500019F484E08C93089564FF03C081E08C93C3
:100A600012C01C9210C02F57304013963C932E9307
:100A7000129783E08C9387E0440F551F661F771F02
:100A80008A95D1F7706414964D935D936D937C9322
:100A9000179708951F93DC01FB019C91923008F495
:100AA00047C08081823008F443C0943051F41196DD
:100AB0001C91843099F58181682F70E0611B710968
:100AC0003FC0843021F0923031F48230B9F181811D
:100AD000882389F12DC011961C9111978230F1F075
:100AE00081811817D9F412962D913C911397828128
:100AF00093818217930794F028173907BCF0149656
:100B00008D919D910D90BC91A02D248135814681C0
:100B10005781281739074A075B0718F4112341F05A
:100B20000AC082179307A407B50740F4112319F0F0
:100B300061E070E005C06FEF7FEF02C060E070E041
:100B4000CB011F910895DF93CF93CDB7DEB7ABE50F
:100B5000B0E0EBE5F0E08081806E8C93CF91DF9187
:100B60000895DF93CF93CDB7DEB7A5E5B0E0E5E517
:100B7000F0E080818E7F8C93A5E5B0E0E5E5F0E0C4
:100B800080818E608C93CF91DF910895DF93CF9316
:100B9000CDB7DEB7A4E5B0E0E4E5F0E080818F7B7F
:100BA0008C93CF91DF910895DF93CF93CDB7DEB7CC
:100BB000A9E5B0E0E9E5F0E0808180618C93AFE4E5
:100BC000B0E0EFE4F0E080818F738C93AFE4B0E0AD
:100BD000EFE4F0E080818C7F8C93AEE4B0E0EEE453
:100BE000F0E0808188608C93AEE4B0E0EEE4F0E069
:100BF00080818F7E8C93EAE4F0E088E09DE391832E
:100C00008083ECE4F0E011821082AEE4B0E0EEE428
:100C1000F0E0808185608C93AEE4B0E0EEE4F0E03B
:100C200080818D7F8C93CF91DF910895DF93CF9357
:100C3000CDB7DEB70E94B1050E94C6050E94A3058C
:100C4000A4E3B0E0E4E3F0E080818F608C93A5E35F
:100C5000B0E0E5E3F0E08081807F8C93E7E3F0E0B3
:100C60001082A1E3B0E0E1E3F0E08081837F8C9328
:100C7000A1E3B0E0E1E3F0E0808181638C93AAE33B
:100C8000B0E0EAE3F0E080818F638C93A2E3B0E010
:100C9000E2E3F0E0808184608C93E8E3F0E08FEFA2
:100CA00080830E94D405AFE5B0E0EFE5F0E08081FD
:100CB00080688C93CF91DF9108951F920F920FB6A9
:100CC0000F9211248F93AF93BF93EF93FF93DF9312
:100CD000CF93CDB7DEB710926B0010926A001092DE
:100CE0006D0010926C0010926F0010926E001092C6
:100CF000730010927200ECE4F0E011821082AAE519
:100D0000B0E0EAE5F0E0808180648C93CF91DF91E0
:100D1000FF91EF91BF91AF918F910F900FBE0F9008
:100D20001F9018951F920F920FB60F9211248F9358
:100D30009F93AF93BF93EF93FF93DF93CF93CDB781
:100D4000DEB781E090E09093710080937000109284
:100D5000730010927200AEE4B0E0EEE4F0E0808147
:100D6000887F8C93AAE5B0E0EAE5F0E080818068B6
:100D70008C93CF91DF91FF91EF91BF91AF919F91B4
:100D80008F910F900FBE0F901F9018951F920F928A
:100D90000FB60F9211248F93AF93BF93EF93FF93EE
:100DA000DF93CF93CDB7DEB7109271001092700031
:100DB000AEE4B0E0EEE4F0E0808185608C93AEE4D8
:100DC000B0E0EEE4F0E080818D7F8C93AAE5B0E0A6
:100DD000EAE5F0E0808180628C93CF91DF91FF9112
:100DE000EF91BF91AF918F910F900FBE0F901F9019
:100DF00018951F920F920FB60F9211248F939F9305
:100E0000DF93CF93CDB7DEB78091680090916900F2
:100E10008130910509F04CC080916E0090916F0077
:100E2000019690936F0080936E0080916E00909178
:100E30006F008C33910568F010926F0010926E0075
:100E400080916C0090916D00019690936D0080935D
:100E50006C0080916C0090916D008C33910568F06E
:100E600010926D0010926C0080916A0090916B005E
:100E7000019690936B0080936A0080916A00909134
:100E80006B008436910508F487C083E690E0909368
:100E90006B0080936A008BE390E090936D008093E9
:100EA0006C008BE390E090936F0080936E0074C0B1
:100EB00080916800909169008130910509F46CC0BF
:100EC00080916E0090916F00009751F080916E00BC
:100ED00090916F00019790936F0080936E005CC0BB
:100EE00080916E0090916F000097B1F480916C003A
:100EF00090916D00009781F080916C0090916D0051
:100F0000019790936D0080936C008BE390E0909339
:100F10006F0080936E0040C080916E0090916F00D2
:100F2000009711F580916C0090916D000097E1F4AD
:100F300080916A0090916B000097B1F080916A00F7
:100F400090916B00019790936B0080936A008BE304
:100F500090E090936D0080936C008BE390E0909311
:100F60006F0080936E0018C080916E0090916F00AA
:100F7000009791F480916C0090916D00009761F45E
:100F800080916A0090916B00009731F481E090E0CD
:100F90009093730080937200CF91DF919F918F9116
:100FA0000F900FBE0F901F9018950F931F93DF9314
:100FB000CF93CDB7DEB7C455D0400FB6F894DEBF9F
:100FC0000FBECDBFABE3B0E0EBE3F0E08081807C0F
:100FD0008C9305E310E0E5E3F0E08081482F407F4B
:100FE00080916A0090916B002AE030E0B9010E9484
:100FF000020DCB01842BF8018083EBE3F0E081E06C
:101000008083FE01EF5AFF4F80E090E0A0E8BFE34D
:1010100080839183A283B3838E01035B1F4FFE0104
:10102000EF5AFF4F608171818281938120E030E02F
:101030004AE755E40E941F02DC01CB01F8018083DE
:101040009183A283B383FE01E35BFF4F60817181D3
:101050008281938120E030E040E85FE30E947903E1
:10106000882344F4FE01E55BFF4F81E090E091832B
:10107000808364C0FE01E35BFF4F608171818281E8
:10108000938120E03FEF4FE757E40E9419031816C1
:101090000CF043C0FE01EF5AFF4F608171818281E5
:1010A000938120E030E040E251E40E941F02DC0125
:1010B000CB018E01055B1F4FBC01CD010E94490091
:1010C000DC01CB01F801918380831FC0FE01E75B47
:1010D000FF4F80E991E091838083FE01E75BFF4F42
:1010E000808191810197F1F7FE01E75BFF4F9183CA
:1010F0008083DE01A55BBF4FFE01E55BFF4F808172
:101100009181019711969C938E93FE01E55BFF4FB1
:10111000808191810097D1F627C08E01055B1F4F1A
:10112000FE01E35BFF4F60817181828193810E94A8
:101130004900DC01CB01F80191838083DE01A95BCA
:10114000BF4FFE01E55BFF4F808191818D939C93A2
:10115000FE01E95BFF4F808191810197F1F7FE016C
:10116000E95BFF4F91838083ABE3B0E0EBE3F0E01A
:101170008081807C8C9305E310E0E5E3F0E08081E2
:10118000482F407F80916A0090916B002AE030E008
:10119000B9010E94020D842BF8018083EBE3F0E09B
:1011A00082E08083FE01ED5BFF4F80E090E0A0E8ED
:1011B000BFE380839183A283B3838E01015C1F4FC1
:1011C000FE01ED5BFF4F608171818281938120E0A0
:1011D00030E04AE755E40E941F02DC01CB01F80130
:1011E00080839183A283B383FE01FF966081718126
:1011F0008281938120E030E040E85FE30E94790340
:1012000088232CF481E090E09EAF8DAF46C0FE01B4
:10121000FF96608171818281938120E03FEF4FE7EB
:1012200057E40E941903181664F5FE01ED5BFF4FA9
:10123000608171818281938120E030E040E251E45D
:101240000E941F02DC01CB01BC01CD010E944900BC
:10125000DC01CB019EAF8DAF0FC080E991E09CAF68
:101260008BAF8BAD9CAD0197F1F79CAF8BAF8DAD84
:101270009EAD01979EAF8DAF8DAD9EAD009769F786
:1012800016C0FE01FF9660817181828193810E9468
:101290004900DC01CB019EAF8DAF8DAD9EAD9AAF05
:1012A00089AF89AD9AAD0197F1F79AAF89AFABE3FA
:1012B000B0E0EBE3F0E08081807C8C9305E310E00C
:1012C000E5E3F0E08081482F407F80916C009091B1
:1012D0006D002AE030E0B9010E94020DCB01842BA1
:1012E000F8018083EBE3F0E084E0808380E090E02D
:1012F000A0E8BFE38DAB9EABAFABB8AF6DA97EA945
:101300008FA998AD20E030E04AE755E40E941F0223
:10131000DC01CB0189AB9AABABABBCAB69A97AA9B9
:101320008BA99CA920E030E040E85FE30E947903AC
:1013300088232CF481E090E098AB8FA73FC069A987
:101340007AA98BA99CA920E03FEF4FE757E40E94C0
:10135000190318164CF56DA97EA98FA998AD20E048
:1013600030E040E251E40E941F02DC01CB01BC01ED
:10137000CD010E944900DC01CB0198AB8FA70FC0C3
:1013800080E991E09EA78DA78DA59EA50197F1F715
:101390009EA78DA78FA598A9019798AB8FA78FA51A
:1013A00098A9009769F714C069A97AA98BA99CA983
:1013B0000E944900DC01CB0198AB8FA78FA598A9AB
:1013C0009CA78BA78BA59CA50197F1F79CA78BA742
:1013D000ABE3B0E0EBE3F0E08081807C8C9305E34D
:1013E00010E0E5E3F0E08081482F407F80916C00C1
:1013F00090916D002AE030E0B9010E94020D842B2B
:10140000F8018083EBE3F0E088E0808380E090E007
:10141000A0E8BFE38FA398A7A9A7BAA76FA178A553
:1014200089A59AA520E030E04AE755E40E941F0212
:10143000DC01CB018BA39CA3ADA3BEA36BA17CA1BC
:101440008DA19EA120E030E040E85FE30E94790397
:1014500088232CF481E090E09AA389A33FC06BA17C
:101460007CA18DA19EA120E03FEF4FE757E40E94B1
:10147000190318164CF56FA178A589A59AA520E047
:1014800030E040E251E40E941F02DC01CB01BC01CC
:10149000CD010E944900DC01CB019AA389A30FC0B2
:1014A00080E991E098A38F8F8F8D98A10197F1F734
:1014B00098A38F8F89A19AA101979AA389A389A143
:1014C0009AA1009769F714C06BA17CA18DA19EA180
:1014D0000E944900DC01CB019AA389A389A19AA1AA
:1014E0009E8F8D8F8D8D9E8D0197F1F79E8F8D8FA5
:1014F000ABE3B0E0EBE3F0E08081807C8C9305E32C
:1015000010E0E5E3F0E08081482F407F80916E009D
:1015100090916F002AE030E0B9010E94020DCB01EA
:10152000842BF8018083EBE3F0E080E1808380E0AE
:1015300090E0A0E8BFE3898F9A8FAB8FBC8F698D55
:101540007A8D8B8D9C8D20E030E04AE755E40E9437
:101550001F02DC01CB018D8B9E8BAF8BB88F6D8909
:101560007E898F89988D20E030E040E85FE30E941B
:10157000790388232CF481E090E09C8B8B8B3FC017
:101580006D897E898F89988D20E03FEF4FE757E482
:101590000E94190318164CF5698D7A8D8B8D9C8DE0
:1015A00020E030E040E251E40E941F02DC01CB0168
:1015B000BC01CD010E944900DC01CB019C8B8B8BCF
:1015C0000FC080E991E09A8B898B89899A8901976C
:1015D000F1F79A8B898B8B899C8901979C8B8B8BDC
:1015E0008B899C89009769F714C06D897E898F89E2
:1015F000988D0E944900DC01CB019C8B8B8B8B89E1
:101600009C89988B8F878F8598890197F1F7988BA4
:101610008F87ABE3B0E0EBE3F0E08081807C8C93DC
:1016200005E310E0E5E3F0E08081482F407F809102
:101630006E0090916F002AE030E0B9010E94020D27
:10164000842BF8018083EBE3F0E080E2808380E08C
:1016500090E0A0E8BFE38B879C87AD87BE876B8552
:101660007C858D859E8520E030E04AE755E40E9428
:101670001F02DC01CB018F839887A987BA876F810E
:10168000788589859A8520E030E040E85FE30E9414
:10169000790388232CF481E090E09E838D833FC002
:1016A0006F81788589859A8520E03FEF4FE757E481
:1016B0000E94190318164CF56B857C858D859E85D7
:1016C00020E030E040E251E40E941F02DC01CB0147
:1016D000BC01CD010E944900DC01CB019E838D83BA
:1016E0000FC080E991E09C838B838B819C81019763
:1016F000F1F79C838B838D819E8101979E838D83DF
:101700008D819E81009769F714C06F8178858985E6
:101710009A850E944900DC01CB019E838D838D81D7
:101720009E819A83898389819A810197F1F79A83AF
:101730008983CC5ADF4F0FB6F894DEBF0FBECDBF02
:10174000CF91DF911F910F910895DF93CF93CDB784
:10175000DEB70E9416060E94D50780917000909116
:101760007100009709F40FC1E6E3F0E0808188235F
:101770005CF08091680090916900009759F0109298
:1017800069001092680006C081E090E090936900C3
:1017900080936800E6E3F0E08081882F90E082701B
:1017A00090700097E9F48091740090917500009713
:1017B000D9F480916A0090916B008336910548F4CA
:1017C00080916A0090916B00019690936B008093DA
:1017D0006A0081E090E0909375008093740004C0EB
:1017E0001092750010927400E6E3F0E08081882F7B
:1017F00090E0817090700097E1F480917600909174
:1018000077000097D1F480916A0090916B00009767
:1018100049F080916A0090916B00019790936B0062
:1018200080936A0081E090E0909377008093760047
:1018300004C01092770010927600E6E3F0E0808119
:10184000882F90E0807190700097E9F48091780083
:10185000909179000097D9F480916C0090916D007F
:101860008B33910548F480916C0090916D00019646
:1018700090936D0080936C0081E090E090937900EC
:101880008093780004C01092790010927800E6E30B
:10189000F0E08081882F90E0887090700097E1F4EC
:1018A00080917A0090917B000097D1F480916C0038
:1018B00090916D00009749F080916C0090916D00BF
:1018C000019790936D0080936C0081E090E090937D
:1018D0007B0080937A0004C010927B0010927A0003
:1018E000E6E3F0E08081882F90E0807490700097AC
:1018F000E9F480917C0090917D000097D9F480916B
:101900006E0090916F008B33910548F480916E00CA
:1019100090916F00019690936F0080936E0081E02C
:1019200090E090937D0080937C0004C010927D0035
:1019300010927C00E6E3F0E08081882F90E08072D6
:1019400090700097E1F480917E0090917F00009765
:10195000D1F480916E0090916F00009749F08091D2
:101960006E0090916F00019790936F0080936E00CE
:1019700081E090E090937F0080937E0004C01092FD
:101980007F0010927E00809172009091730000970A
:1019900041F0A2E3B0E0E2E3F0E0808181608C936B
:1019A0000DC08091720090917300009739F4A2E30A
:1019B000B0E0E2E3F0E080818E7F8C93809168005C
:1019C00090916900009779F4A2E3B0E0E2E3F0E0DF
:1019D000808180628C93A2E3B0E0E2E3F0E080815A
:1019E0008F7E8C93B8CEA2E3B0E0E2E3F0E080819A
:1019F00080618C93A2E3B0E0E2E3F0E080818F7D30
:101A00008C93A9CEAA1BBB1B51E107C0AA1FBB1F09
:101A1000A617B70710F0A61BB70B881F991F5A957A
:101A2000A9F780959095BC01CD0108952F923F9222
:101A30004F925F926F927F928F929F92AF92BF92DE
:101A4000CF92DF92EF92FF920F931F93CF93DF938A
:101A5000CDB7DEB7CA1BDB0B0FB6F894DEBF0FBEE7
:101A6000CDBF09942A88398848885F846E847D8434
:101A70008C849B84AA84B984C884DF80EE80FD8036
:101A80000C811B81AA81B981CE0FD11D0FB6F894AC
:0E1A9000DEBF0FBECDBFED010895F894FFCF6D
:0A1A9E00000000000000000001003D
:00000001FF
